{
  "contractName": "Asset",
  "abi": [
    {
      "constant": true,
      "inputs": [],
      "name": "description",
      "outputs": [
        {
          "name": "",
          "type": "string"
        }
      ],
      "payable": false,
      "stateMutability": "view",
      "type": "function"
    },
    {
      "constant": true,
      "inputs": [],
      "name": "lastOwner",
      "outputs": [
        {
          "name": "",
          "type": "address"
        }
      ],
      "payable": false,
      "stateMutability": "view",
      "type": "function"
    },
    {
      "constant": true,
      "inputs": [],
      "name": "owner",
      "outputs": [
        {
          "name": "",
          "type": "address"
        }
      ],
      "payable": false,
      "stateMutability": "view",
      "type": "function"
    },
    {
      "constant": true,
      "inputs": [],
      "name": "pendingOwner",
      "outputs": [
        {
          "name": "",
          "type": "address"
        }
      ],
      "payable": false,
      "stateMutability": "view",
      "type": "function"
    },
    {
      "inputs": [
        {
          "name": "_owner",
          "type": "address"
        },
        {
          "name": "_description",
          "type": "string"
        }
      ],
      "payable": false,
      "stateMutability": "nonpayable",
      "type": "constructor"
    },
    {
      "payable": false,
      "stateMutability": "nonpayable",
      "type": "fallback"
    },
    {
      "anonymous": false,
      "inputs": [
        {
          "indexed": true,
          "name": "lastOwner",
          "type": "address"
        }
      ],
      "name": "AssetDestroyed",
      "type": "event"
    },
    {
      "anonymous": false,
      "inputs": [
        {
          "indexed": true,
          "name": "owner",
          "type": "address"
        },
        {
          "indexed": true,
          "name": "pendingOwner",
          "type": "address"
        }
      ],
      "name": "PendingTransfer",
      "type": "event"
    },
    {
      "anonymous": false,
      "inputs": [
        {
          "indexed": true,
          "name": "previousOwner",
          "type": "address"
        },
        {
          "indexed": true,
          "name": "newOwner",
          "type": "address"
        }
      ],
      "name": "OwnershipTransferred",
      "type": "event"
    },
    {
      "anonymous": false,
      "inputs": [
        {
          "indexed": true,
          "name": "owner",
          "type": "address"
        },
        {
          "indexed": true,
          "name": "trustee",
          "type": "address"
        }
      ],
      "name": "Approval",
      "type": "event"
    },
    {
      "anonymous": false,
      "inputs": [
        {
          "indexed": true,
          "name": "owner",
          "type": "address"
        },
        {
          "indexed": true,
          "name": "trustee",
          "type": "address"
        }
      ],
      "name": "RemovedApproval",
      "type": "event"
    },
    {
      "constant": false,
      "inputs": [
        {
          "name": "newOwner",
          "type": "address"
        }
      ],
      "name": "transfer",
      "outputs": [],
      "payable": false,
      "stateMutability": "nonpayable",
      "type": "function"
    },
    {
      "constant": false,
      "inputs": [
        {
          "name": "newOwner",
          "type": "address"
        }
      ],
      "name": "transferFrom",
      "outputs": [],
      "payable": false,
      "stateMutability": "nonpayable",
      "type": "function"
    },
    {
      "constant": false,
      "inputs": [],
      "name": "claim",
      "outputs": [],
      "payable": false,
      "stateMutability": "nonpayable",
      "type": "function"
    },
    {
      "constant": false,
      "inputs": [],
      "name": "destroy",
      "outputs": [],
      "payable": false,
      "stateMutability": "nonpayable",
      "type": "function"
    },
    {
      "constant": false,
      "inputs": [
        {
          "name": "_trustee",
          "type": "address"
        }
      ],
      "name": "approve",
      "outputs": [
        {
          "name": "",
          "type": "bool"
        }
      ],
      "payable": false,
      "stateMutability": "nonpayable",
      "type": "function"
    },
    {
      "constant": false,
      "inputs": [
        {
          "name": "_trustee",
          "type": "address"
        }
      ],
      "name": "removeApproval",
      "outputs": [
        {
          "name": "",
          "type": "bool"
        }
      ],
      "payable": false,
      "stateMutability": "nonpayable",
      "type": "function"
    },
    {
      "constant": true,
      "inputs": [
        {
          "name": "_trustee",
          "type": "address"
        }
      ],
      "name": "allowance",
      "outputs": [
        {
          "name": "",
          "type": "bool"
        }
      ],
      "payable": false,
      "stateMutability": "view",
      "type": "function"
    }
  ],
  "bytecode": "0x608060405234801561001057600080fd5b50604051610ed1380380610ed18339810180604052810190808051906020019092919080518201929190505050816000806101000a81548173ffffffffffffffffffffffffffffffffffffffff021916908373ffffffffffffffffffffffffffffffffffffffff160217905550806003908051906020019061009392919061009b565b505050610140565b828054600181600116156101000203166002900490600052602060002090601f016020900481019282601f106100dc57805160ff191683800117855561010a565b8280016001018555821561010a579182015b828111156101095782518255916020019190600101906100ee565b5b509050610117919061011b565b5090565b61013d91905b80821115610139576000816000905550600101610121565b5090565b90565b610d828061014f6000396000f3006080604052600436106100af576000357c0100000000000000000000000000000000000000000000000000000000900463ffffffff1680631a695230146100be5780633e5beab9146101015780634e71d92d1461015c5780637284e416146101735780637cab5e8c1461020357806383197ef01461025e5780638a56ca45146102755780638da5cb5b146102cc578063daea85c514610323578063e30c39781461037e578063e4759493146103d5575b3480156100bb57600080fd5b50005b3480156100ca57600080fd5b506100ff600480360381019080803573ffffffffffffffffffffffffffffffffffffffff169060200190929190505050610418565b005b34801561010d57600080fd5b50610142600480360381019080803573ffffffffffffffffffffffffffffffffffffffff169060200190929190505050610554565b604051808215151515815260200191505060405180910390f35b34801561016857600080fd5b50610171610608565b005b34801561017f57600080fd5b506101886107a7565b6040518080602001828103825283818151815260200191508051906020019080838360005b838110156101c85780820151818401526020810190506101ad565b50505050905090810190601f1680156101f55780820380516001836020036101000a031916815260200191505b509250505060405180910390f35b34801561020f57600080fd5b50610244600480360381019080803573ffffffffffffffffffffffffffffffffffffffff169060200190929190505050610845565b604051808215151515815260200191505060405180910390f35b34801561026a57600080fd5b5061027361099a565b005b34801561028157600080fd5b5061028a610b38565b604051808273ffffffffffffffffffffffffffffffffffffffff1673ffffffffffffffffffffffffffffffffffffffff16815260200191505060405180910390f35b3480156102d857600080fd5b506102e1610b5e565b604051808273ffffffffffffffffffffffffffffffffffffffff1673ffffffffffffffffffffffffffffffffffffffff16815260200191505060405180910390f35b34801561032f57600080fd5b50610364600480360381019080803573ffffffffffffffffffffffffffffffffffffffff169060200190929190505050610b83565b604051808215151515815260200191505060405180910390f35b34801561038a57600080fd5b50610393610cd8565b604051808273ffffffffffffffffffffffffffffffffffffffff1673ffffffffffffffffffffffffffffffffffffffff16815260200191505060405180910390f35b3480156103e157600080fd5b50610416600480360381019080803573ffffffffffffffffffffffffffffffffffffffff169060200190929190505050610cfe565b005b6000809054906101000a900473ffffffffffffffffffffffffffffffffffffffff1673ffffffffffffffffffffffffffffffffffffffff163373ffffffffffffffffffffffffffffffffffffffff1614151561047357600080fd5b80600260006101000a81548173ffffffffffffffffffffffffffffffffffffffff021916908373ffffffffffffffffffffffffffffffffffffffff160217905550600260009054906101000a900473ffffffffffffffffffffffffffffffffffffffff1673ffffffffffffffffffffffffffffffffffffffff166000809054906101000a900473ffffffffffffffffffffffffffffffffffffffff1673ffffffffffffffffffffffffffffffffffffffff167f133753d462a12d5f2ce18e0f7e98981f0c2fcb522e74287ab1fbe94ad415a64960405160405180910390a350565b6000600460008060009054906101000a900473ffffffffffffffffffffffffffffffffffffffff1673ffffffffffffffffffffffffffffffffffffffff1673ffffffffffffffffffffffffffffffffffffffff16815260200190815260200160002060008373ffffffffffffffffffffffffffffffffffffffff1673ffffffffffffffffffffffffffffffffffffffff16815260200190815260200160002060009054906101000a900460ff169050919050565b600260009054906101000a900473ffffffffffffffffffffffffffffffffffffffff1673ffffffffffffffffffffffffffffffffffffffff163373ffffffffffffffffffffffffffffffffffffffff1614151561066457600080fd5b600260009054906101000a900473ffffffffffffffffffffffffffffffffffffffff166000806101000a81548173ffffffffffffffffffffffffffffffffffffffff021916908373ffffffffffffffffffffffffffffffffffffffff1602179055506000600260006101000a81548173ffffffffffffffffffffffffffffffffffffffff021916908373ffffffffffffffffffffffffffffffffffffffff160217905550600260009054906101000a900473ffffffffffffffffffffffffffffffffffffffff1673ffffffffffffffffffffffffffffffffffffffff166000809054906101000a900473ffffffffffffffffffffffffffffffffffffffff1673ffffffffffffffffffffffffffffffffffffffff167f8be0079c531659141344cd1fd0a4f28419497f9722a3daafe3b4186f6b6457e060405160405180910390a3565b60038054600181600116156101000203166002900480601f01602080910402602001604051908101604052809291908181526020018280546001816001161561010002031660029004801561083d5780601f106108125761010080835404028352916020019161083d565b820191906000526020600020905b81548152906001019060200180831161082057829003601f168201915b505050505081565b60008060009054906101000a900473ffffffffffffffffffffffffffffffffffffffff1673ffffffffffffffffffffffffffffffffffffffff163373ffffffffffffffffffffffffffffffffffffffff161415156108a257600080fd5b6000600460003373ffffffffffffffffffffffffffffffffffffffff1673ffffffffffffffffffffffffffffffffffffffff16815260200190815260200160002060008473ffffffffffffffffffffffffffffffffffffffff1673ffffffffffffffffffffffffffffffffffffffff16815260200190815260200160002060006101000a81548160ff0219169083151502179055508173ffffffffffffffffffffffffffffffffffffffff163373ffffffffffffffffffffffffffffffffffffffff167fd534ffa020e5bde6947979322239b98eeeb339da776b2bb48680b800fc41d07960405160405180910390a360019050919050565b6000809054906101000a900473ffffffffffffffffffffffffffffffffffffffff1673ffffffffffffffffffffffffffffffffffffffff163373ffffffffffffffffffffffffffffffffffffffff161415156109f557600080fd5b6000809054906101000a900473ffffffffffffffffffffffffffffffffffffffff16600160006101000a81548173ffffffffffffffffffffffffffffffffffffffff021916908373ffffffffffffffffffffffffffffffffffffffff16021790555060008060006101000a81548173ffffffffffffffffffffffffffffffffffffffff021916908373ffffffffffffffffffffffffffffffffffffffff160217905550600160009054906101000a900473ffffffffffffffffffffffffffffffffffffffff1673ffffffffffffffffffffffffffffffffffffffff167f3a37f72a370bcb6be78458e1757e25c83aaa0af333e63c49bd768aa8ac95c7b360405160405180910390a2600160009054906101000a900473ffffffffffffffffffffffffffffffffffffffff1673ffffffffffffffffffffffffffffffffffffffff16ff5b600160009054906101000a900473ffffffffffffffffffffffffffffffffffffffff1681565b6000809054906101000a900473ffffffffffffffffffffffffffffffffffffffff1681565b60008060009054906101000a900473ffffffffffffffffffffffffffffffffffffffff1673ffffffffffffffffffffffffffffffffffffffff163373ffffffffffffffffffffffffffffffffffffffff16141515610be057600080fd5b6001600460003373ffffffffffffffffffffffffffffffffffffffff1673ffffffffffffffffffffffffffffffffffffffff16815260200190815260200160002060008473ffffffffffffffffffffffffffffffffffffffff1673ffffffffffffffffffffffffffffffffffffffff16815260200190815260200160002060006101000a81548160ff0219169083151502179055508173ffffffffffffffffffffffffffffffffffffffff163373ffffffffffffffffffffffffffffffffffffffff167ff37f546c25e850257cc0c94f92bec94a17e2f0e884ddda268a25d8144b70eb6a60405160405180910390a360019050919050565b600260009054906101000a900473ffffffffffffffffffffffffffffffffffffffff1681565b610d0733610554565b1515610d1257600080fd5b80600260006101000a81548173ffffffffffffffffffffffffffffffffffffffff021916908373ffffffffffffffffffffffffffffffffffffffff160217905550505600a165627a7a7230582070f3e22f3c6d73cf7ac91470cee5711082a44801497091545ae52fa12464a1be0029",
  "source": "pragma solidity ^0.4.24;\n\n/**\n * @title Asset\n * @dev The Asset contract has an owner who can transfer the ownership of the asset\n * an Asset contract is tracked via an AssetSeries contract\n */\ncontract Asset {\n\n    address public owner;\n    address public lastOwner;\n    address public pendingOwner;\n    string public description;\n    mapping (address => mapping (address => bool)) internal allowed;\n\n    event AssetDestroyed(address indexed lastOwner);\n    event PendingTransfer(\n        address indexed owner,\n        address indexed pendingOwner\n    );\n    event OwnershipTransferred(\n        address indexed previousOwner,\n        address indexed newOwner\n    );\n    event Approval(\n        address indexed owner,\n        address indexed trustee\n    );\n    event RemovedApproval(\n        address indexed owner,\n        address indexed trustee\n    );\n\n    /**\n    * @dev Modifier throws if called by any account other than the pendingOwner.\n    */\n    modifier onlyPendingOwner {\n        require(msg.sender == pendingOwner);\n        _;\n    }\n\n    /**\n    * @dev Throws if called by any account other than the owner.\n    */\n    modifier onlyOwner() {\n        require(msg.sender == owner);\n        _;\n    }\n\n    /**\n    * @dev The Asset constructor sets the original `owner` of the contract to the sender\n    * account.\n    */\n    constructor(address _owner, string _description) public {\n        owner = _owner;\n        description = _description;\n    }\n    \n    /*\n    * @dev fallback function\n    */\n    function() public {}    \n\n    /**\n    * @dev Allows the current owner to set the pendingOwner address.\n    * @param newOwner The address to transfer ownership to.\n    */\n    function transfer(address newOwner) onlyOwner public {\n        pendingOwner = newOwner;\n        emit PendingTransfer(owner, pendingOwner);\n    }\n    \n    \n    /**\n    * @dev Allows an approved trustee to set the pendingOwner address.\n    * @param newOwner The address to transfer ownership to.\n    */\n    function transferFrom(address newOwner) public {\n        require(allowance(msg.sender));\n        pendingOwner = newOwner;\n    }\n\n    /**\n    * @dev Allows the pendingOwner address to finalize the transfer.\n    */\n    function claim() onlyPendingOwner public {\n        owner = pendingOwner;\n        pendingOwner = address(0);\n        emit OwnershipTransferred(owner, pendingOwner);\n    }\n    \n    /**\n    * @dev The Asset is no longer active\n    */\n    function destroy() onlyOwner public {\n        lastOwner = owner;\n        owner = address(0);\n        emit AssetDestroyed(lastOwner);\n        selfdestruct(lastOwner);\n    }\n\n    /**\n    * @dev Approve the passed address to transfer the Asset on behalf of msg.sender.\n    * @param _trustee The address which will spend the funds.\n    */\n    function approve(address _trustee) onlyOwner public returns (bool) {\n        allowed[msg.sender][_trustee] = true;\n        emit Approval(msg.sender, _trustee);\n        return true;\n    }\n    \n    /**\n    * @dev Approve the passed address to transfer the Asset on behalf of msg.sender.\n    * @param _trustee The address which will spend the funds.\n    */\n    function removeApproval(address _trustee) onlyOwner public returns (bool) {\n        allowed[msg.sender][_trustee] = false;\n        emit RemovedApproval(msg.sender, _trustee);\n        return true;\n    }\n\n    /**\n    * @dev Function to check if a trustee is allowed to transfer on behalf the owner\n    * @param _trustee address The address which will spend the funds.\n    * @return A bool specifying if the trustee can still transfer the Asset\n    */\n    function allowance(address _trustee) public view returns (bool) {\n        return allowed[owner][_trustee];\n    }\n}",
  "sourcePath": "/Users/GustavoIbarra/Projects/Solidity/blockchain-asset-registry/contracts/Asset.sol",
  "compiler": {
    "name": "solc",
    "version": "0.4.24+commit.e67f0147.Emscripten.clang"
  },
  "schemaVersion": "2.0.1",
  "updatedAt": "2018-09-28T23:40:14.468Z"
}