{
  "contractName": "AssetSeriesRegistry",
  "abi": [
    {
      "constant": true,
      "inputs": [],
      "name": "serialNumber",
      "outputs": [
        {
          "name": "",
          "type": "uint256"
        }
      ],
      "payable": false,
      "stateMutability": "view",
      "type": "function"
    },
    {
      "constant": true,
      "inputs": [
        {
          "name": "",
          "type": "address"
        },
        {
          "name": "",
          "type": "uint256"
        }
      ],
      "name": "assetSeriesByIssuer",
      "outputs": [
        {
          "name": "",
          "type": "address"
        }
      ],
      "payable": false,
      "stateMutability": "view",
      "type": "function"
    },
    {
      "anonymous": false,
      "inputs": [
        {
          "indexed": true,
          "name": "assetSeries",
          "type": "address"
        }
      ],
      "name": "CreatedAssetSeries",
      "type": "event"
    },
    {
      "constant": false,
      "inputs": [
        {
          "name": "limit",
          "type": "uint256"
        },
        {
          "name": "description",
          "type": "string"
        }
      ],
      "name": "newAssetSeries",
      "outputs": [
        {
          "name": "",
          "type": "address"
        }
      ],
      "payable": false,
      "stateMutability": "nonpayable",
      "type": "function"
    },
    {
      "constant": true,
      "inputs": [
        {
          "name": "_issuer",
          "type": "address"
        }
      ],
      "name": "getAssetSeriesCountByIssuer",
      "outputs": [
        {
          "name": "count",
          "type": "uint256"
        }
      ],
      "payable": false,
      "stateMutability": "view",
      "type": "function"
    }
  ],
  "bytecode": "0x60806040526000805534801561001457600080fd5b50611d5c806100246000396000f300608060405260043610610062576000357c0100000000000000000000000000000000000000000000000000000000900463ffffffff16806302894892146100675780632a0daeea146100be57806364deff84146100e9578063c26dd9c31461019c575b600080fd5b34801561007357600080fd5b506100a8600480360381019080803573ffffffffffffffffffffffffffffffffffffffff169060200190929190505050610229565b6040518082815260200191505060405180910390f35b3480156100ca57600080fd5b506100d3610275565b6040518082815260200191505060405180910390f35b3480156100f557600080fd5b5061015a60048036038101908080359060200190929190803590602001908201803590602001908080601f016020809104026020016040519081016040528093929190818152602001838380828437820191505050505050919291929050505061027b565b604051808273ffffffffffffffffffffffffffffffffffffffff1673ffffffffffffffffffffffffffffffffffffffff16815260200191505060405180910390f35b3480156101a857600080fd5b506101e7600480360381019080803573ffffffffffffffffffffffffffffffffffffffff16906020019092919080359060200190929190505050610460565b604051808273ffffffffffffffffffffffffffffffffffffffff1673ffffffffffffffffffffffffffffffffffffffff16815260200191505060405180910390f35b6000600160008373ffffffffffffffffffffffffffffffffffffffff1673ffffffffffffffffffffffffffffffffffffffff168152602001908152602001600020805490509050919050565b60005481565b60008060003391506000808154600101919050819055508160005486866102a06104ad565b808573ffffffffffffffffffffffffffffffffffffffff1673ffffffffffffffffffffffffffffffffffffffff16815260200184815260200183815260200180602001828103825283818151815260200191508051906020019080838360005b8381101561031b578082015181840152602081019050610300565b50505050905090810190601f1680156103485780820380516001836020036101000a031916815260200191505b5095505050505050604051809103906000f08015801561036c573d6000803e3d6000fd5b509050600160008373ffffffffffffffffffffffffffffffffffffffff1673ffffffffffffffffffffffffffffffffffffffff1681526020019081526020016000208190806001815401808255809150509060018203906000526020600020016000909192909190916101000a81548173ffffffffffffffffffffffffffffffffffffffff021916908373ffffffffffffffffffffffffffffffffffffffff160217905550508073ffffffffffffffffffffffffffffffffffffffff167f3268f95ee60a16b5b471cac965593faccd685428cc2bb5fac92f3ecd14a8280a60405160405180910390a2809250505092915050565b60016020528160005260406000208181548110151561047b57fe5b906000526020600020016000915091509054906101000a900473ffffffffffffffffffffffffffffffffffffffff1681565b604051611873806104be8339019056006080604052600060035534801561001557600080fd5b5060405161187338038061187383398101806040528101908080519060200190929190805190602001909291908051906020019092919080518201929190505050836000806101000a81548173ffffffffffffffffffffffffffffffffffffffff021916908373ffffffffffffffffffffffffffffffffffffffff160217905550826001819055508160028190555080600490805190602001906100ba9291906100c4565b5050505050610169565b828054600181600116156101000203166002900490600052602060002090601f016020900481019282601f1061010557805160ff1916838001178555610133565b82800160010185558215610133579182015b82811115610132578251825591602001919060010190610117565b5b5090506101409190610144565b5090565b61016691905b8082111561016257600081600090555060010161014a565b5090565b90565b6116fb806101786000396000f300608060405260043610610083576000357c0100000000000000000000000000000000000000000000000000000000900463ffffffff1680631d143848146100885780632a0daeea146100df5780633d5490fa1461010a5780637284e41614610177578063967fc2fa14610207578063a4d66daf146102b0578063cd9df190146102db575b600080fd5b34801561009457600080fd5b5061009d610306565b604051808273ffffffffffffffffffffffffffffffffffffffff1673ffffffffffffffffffffffffffffffffffffffff16815260200191505060405180910390f35b3480156100eb57600080fd5b506100f461032b565b6040518082815260200191505060405180910390f35b34801561011657600080fd5b5061013560048036038101908080359060200190929190505050610331565b604051808273ffffffffffffffffffffffffffffffffffffffff1673ffffffffffffffffffffffffffffffffffffffff16815260200191505060405180910390f35b34801561018357600080fd5b5061018c610364565b6040518080602001828103825283818151815260200191508051906020019080838360005b838110156101cc5780820151818401526020810190506101b1565b50505050905090810190601f1680156101f95780820380516001836020036101000a031916815260200191505b509250505060405180910390f35b34801561021357600080fd5b5061026e600480360381019080803590602001908201803590602001908080601f0160208091040260200160405190810160405280939291908181526020018383808284378201915050505050509192919290505050610402565b604051808273ffffffffffffffffffffffffffffffffffffffff1673ffffffffffffffffffffffffffffffffffffffff16815260200191505060405180910390f35b3480156102bc57600080fd5b506102c56106b5565b6040518082815260200191505060405180910390f35b3480156102e757600080fd5b506102f06106bb565b6040518082815260200191505060405180910390f35b6000809054906101000a900473ffffffffffffffffffffffffffffffffffffffff1681565b60015481565b60056020528060005260406000206000915054906101000a900473ffffffffffffffffffffffffffffffffffffffff1681565b60048054600181600116156101000203166002900480601f0160208091040260200160405190810160405280929190818152602001828054600181600116156101000203166002900480156103fa5780601f106103cf576101008083540402835291602001916103fa565b820191906000526020600020905b8154815290600101906020018083116103dd57829003601f168201915b505050505081565b6000806000809054906101000a900473ffffffffffffffffffffffffffffffffffffffff1673ffffffffffffffffffffffffffffffffffffffff163373ffffffffffffffffffffffffffffffffffffffff1614151561046057600080fd5b6002546003541015156104db576040517f08c379a000000000000000000000000000000000000000000000000000000000815260040180806020018281038252601f8152602001807f43616e6e6f7420616464206d6f726520417373657420636f6e7472616374730081525060200191505060405180910390fd5b600360008154600101919050819055506000809054906101000a900473ffffffffffffffffffffffffffffffffffffffff16833060035461051a6106c1565b808573ffffffffffffffffffffffffffffffffffffffff1673ffffffffffffffffffffffffffffffffffffffff168152602001806020018473ffffffffffffffffffffffffffffffffffffffff1673ffffffffffffffffffffffffffffffffffffffff168152602001838152602001828103825285818151815260200191508051906020019080838360005b838110156105c15780820151818401526020810190506105a6565b50505050905090810190601f1680156105ee5780820380516001836020036101000a031916815260200191505b5095505050505050604051809103906000f080158015610612573d6000803e3d6000fd5b5090508060056000600354815260200190815260200160002060006101000a81548173ffffffffffffffffffffffffffffffffffffffff021916908373ffffffffffffffffffffffffffffffffffffffff1602179055508073ffffffffffffffffffffffffffffffffffffffff167ffdbd920d771c2af2b5393875ce96966eb3e41985bf0bb1c29758a5e51414b63f60405160405180910390a280915050919050565b60025481565b60035481565b604051610ffe806106d2833901905600608060405234801561001057600080fd5b50604051610ffe380380610ffe8339810180604052810190808051906020019092919080518201929190602001805190602001909291908051906020019092919050505081818585816000806101000a81548173ffffffffffffffffffffffffffffffffffffffff021916908373ffffffffffffffffffffffffffffffffffffffff16021790555080600390805190602001906100ae929190610104565b50505081600560006101000a81548173ffffffffffffffffffffffffffffffffffffffff021916908373ffffffffffffffffffffffffffffffffffffffff160217905550806006819055505050505050506101a9565b828054600181600116156101000203166002900490600052602060002090601f016020900481019282601f1061014557805160ff1916838001178555610173565b82800160010185558215610173579182015b82811115610172578251825591602001919060010190610157565b5b5090506101809190610184565b5090565b6101a691905b808211156101a257600081600090555060010161018a565b5090565b90565b610e46806101b86000396000f3006080604052600436106100c5576000357c0100000000000000000000000000000000000000000000000000000000900463ffffffff1680631a695230146100d45780632a0daeea1461011757806330835edd146101425780633e5beab9146101995780634e71d92d146101f45780637284e4161461020b5780637cab5e8c1461029b57806383197ef0146102f65780638a56ca451461030d5780638da5cb5b14610364578063daea85c5146103bb578063e30c397814610416578063e47594931461046d575b3480156100d157600080fd5b50005b3480156100e057600080fd5b50610115600480360381019080803573ffffffffffffffffffffffffffffffffffffffff1690602001909291905050506104b0565b005b34801561012357600080fd5b5061012c6105ec565b6040518082815260200191505060405180910390f35b34801561014e57600080fd5b506101576105f2565b604051808273ffffffffffffffffffffffffffffffffffffffff1673ffffffffffffffffffffffffffffffffffffffff16815260200191505060405180910390f35b3480156101a557600080fd5b506101da600480360381019080803573ffffffffffffffffffffffffffffffffffffffff169060200190929190505050610618565b604051808215151515815260200191505060405180910390f35b34801561020057600080fd5b506102096106cc565b005b34801561021757600080fd5b5061022061086b565b6040518080602001828103825283818151815260200191508051906020019080838360005b83811015610260578082015181840152602081019050610245565b50505050905090810190601f16801561028d5780820380516001836020036101000a031916815260200191505b509250505060405180910390f35b3480156102a757600080fd5b506102dc600480360381019080803573ffffffffffffffffffffffffffffffffffffffff169060200190929190505050610909565b604051808215151515815260200191505060405180910390f35b34801561030257600080fd5b5061030b610a5e565b005b34801561031957600080fd5b50610322610bfc565b604051808273ffffffffffffffffffffffffffffffffffffffff1673ffffffffffffffffffffffffffffffffffffffff16815260200191505060405180910390f35b34801561037057600080fd5b50610379610c22565b604051808273ffffffffffffffffffffffffffffffffffffffff1673ffffffffffffffffffffffffffffffffffffffff16815260200191505060405180910390f35b3480156103c757600080fd5b506103fc600480360381019080803573ffffffffffffffffffffffffffffffffffffffff169060200190929190505050610c47565b604051808215151515815260200191505060405180910390f35b34801561042257600080fd5b5061042b610d9c565b604051808273ffffffffffffffffffffffffffffffffffffffff1673ffffffffffffffffffffffffffffffffffffffff16815260200191505060405180910390f35b34801561047957600080fd5b506104ae600480360381019080803573ffffffffffffffffffffffffffffffffffffffff169060200190929190505050610dc2565b005b6000809054906101000a900473ffffffffffffffffffffffffffffffffffffffff1673ffffffffffffffffffffffffffffffffffffffff163373ffffffffffffffffffffffffffffffffffffffff1614151561050b57600080fd5b80600260006101000a81548173ffffffffffffffffffffffffffffffffffffffff021916908373ffffffffffffffffffffffffffffffffffffffff160217905550600260009054906101000a900473ffffffffffffffffffffffffffffffffffffffff1673ffffffffffffffffffffffffffffffffffffffff166000809054906101000a900473ffffffffffffffffffffffffffffffffffffffff1673ffffffffffffffffffffffffffffffffffffffff167f133753d462a12d5f2ce18e0f7e98981f0c2fcb522e74287ab1fbe94ad415a64960405160405180910390a350565b60065481565b600560009054906101000a900473ffffffffffffffffffffffffffffffffffffffff1681565b6000600460008060009054906101000a900473ffffffffffffffffffffffffffffffffffffffff1673ffffffffffffffffffffffffffffffffffffffff1673ffffffffffffffffffffffffffffffffffffffff16815260200190815260200160002060008373ffffffffffffffffffffffffffffffffffffffff1673ffffffffffffffffffffffffffffffffffffffff16815260200190815260200160002060009054906101000a900460ff169050919050565b600260009054906101000a900473ffffffffffffffffffffffffffffffffffffffff1673ffffffffffffffffffffffffffffffffffffffff163373ffffffffffffffffffffffffffffffffffffffff1614151561072857600080fd5b600260009054906101000a900473ffffffffffffffffffffffffffffffffffffffff166000806101000a81548173ffffffffffffffffffffffffffffffffffffffff021916908373ffffffffffffffffffffffffffffffffffffffff1602179055506000600260006101000a81548173ffffffffffffffffffffffffffffffffffffffff021916908373ffffffffffffffffffffffffffffffffffffffff160217905550600260009054906101000a900473ffffffffffffffffffffffffffffffffffffffff1673ffffffffffffffffffffffffffffffffffffffff166000809054906101000a900473ffffffffffffffffffffffffffffffffffffffff1673ffffffffffffffffffffffffffffffffffffffff167f8be0079c531659141344cd1fd0a4f28419497f9722a3daafe3b4186f6b6457e060405160405180910390a3565b60038054600181600116156101000203166002900480601f0160208091040260200160405190810160405280929190818152602001828054600181600116156101000203166002900480156109015780601f106108d657610100808354040283529160200191610901565b820191906000526020600020905b8154815290600101906020018083116108e457829003601f168201915b505050505081565b60008060009054906101000a900473ffffffffffffffffffffffffffffffffffffffff1673ffffffffffffffffffffffffffffffffffffffff163373ffffffffffffffffffffffffffffffffffffffff1614151561096657600080fd5b6000600460003373ffffffffffffffffffffffffffffffffffffffff1673ffffffffffffffffffffffffffffffffffffffff16815260200190815260200160002060008473ffffffffffffffffffffffffffffffffffffffff1673ffffffffffffffffffffffffffffffffffffffff16815260200190815260200160002060006101000a81548160ff0219169083151502179055508173ffffffffffffffffffffffffffffffffffffffff163373ffffffffffffffffffffffffffffffffffffffff167fd534ffa020e5bde6947979322239b98eeeb339da776b2bb48680b800fc41d07960405160405180910390a360019050919050565b6000809054906101000a900473ffffffffffffffffffffffffffffffffffffffff1673ffffffffffffffffffffffffffffffffffffffff163373ffffffffffffffffffffffffffffffffffffffff16141515610ab957600080fd5b6000809054906101000a900473ffffffffffffffffffffffffffffffffffffffff16600160006101000a81548173ffffffffffffffffffffffffffffffffffffffff021916908373ffffffffffffffffffffffffffffffffffffffff16021790555060008060006101000a81548173ffffffffffffffffffffffffffffffffffffffff021916908373ffffffffffffffffffffffffffffffffffffffff160217905550600160009054906101000a900473ffffffffffffffffffffffffffffffffffffffff1673ffffffffffffffffffffffffffffffffffffffff167f3a37f72a370bcb6be78458e1757e25c83aaa0af333e63c49bd768aa8ac95c7b360405160405180910390a2600160009054906101000a900473ffffffffffffffffffffffffffffffffffffffff1673ffffffffffffffffffffffffffffffffffffffff16ff5b600160009054906101000a900473ffffffffffffffffffffffffffffffffffffffff1681565b6000809054906101000a900473ffffffffffffffffffffffffffffffffffffffff1681565b60008060009054906101000a900473ffffffffffffffffffffffffffffffffffffffff1673ffffffffffffffffffffffffffffffffffffffff163373ffffffffffffffffffffffffffffffffffffffff16141515610ca457600080fd5b6001600460003373ffffffffffffffffffffffffffffffffffffffff1673ffffffffffffffffffffffffffffffffffffffff16815260200190815260200160002060008473ffffffffffffffffffffffffffffffffffffffff1673ffffffffffffffffffffffffffffffffffffffff16815260200190815260200160002060006101000a81548160ff0219169083151502179055508173ffffffffffffffffffffffffffffffffffffffff163373ffffffffffffffffffffffffffffffffffffffff167ff37f546c25e850257cc0c94f92bec94a17e2f0e884ddda268a25d8144b70eb6a60405160405180910390a360019050919050565b600260009054906101000a900473ffffffffffffffffffffffffffffffffffffffff1681565b610dcb33610618565b1515610dd657600080fd5b80600260006101000a81548173ffffffffffffffffffffffffffffffffffffffff021916908373ffffffffffffffffffffffffffffffffffffffff160217905550505600a165627a7a72305820d8f9c19a137f8a8d4a83fa9c29fd962fe3842b71c70acef510d56ebd3f6f50100029a165627a7a72305820717542be03851871f91c4eaef463ec43376ce1fa24c6d144778ae239a6f5800c0029a165627a7a72305820f8267efce87166d4fa532b8df8be23a2abb8211e4cb99b52ba0e10d46a7829ab0029",
  "source": "pragma solidity ^0.4.24;\n\nimport './AssetSeries.sol';\n\n/**\n * @title AssetSeriesRegistry\n * @dev \n * Create and keep track of the AssetSeries contracts\n */\ncontract AssetSeriesRegistry {\n\n    uint256 public serialNumber = 0;\n    mapping (address => AssetSeries[]) public assetSeriesByIssuer;\n\n    event CreatedAssetSeries(AssetSeries indexed assetSeries);\n\n    /**\n     * Create a new AssetSeries contract\n     */\n    function newAssetSeries(\n    uint256 limit, \n    string description) \n    public \n    returns (AssetSeries) {\n        address issuer = msg.sender;\n        ++serialNumber;\n        AssetSeries assetSeries = new AssetSeries(issuer, serialNumber, limit, description);\n        assetSeriesByIssuer[issuer].push(assetSeries);\n        emit CreatedAssetSeries(assetSeries);\n        return assetSeries;\n    }\n\n    /*\n    * @dev gets the length of the AssetSeries array of a given issuer\n    */\n    function getAssetSeriesCountByIssuer(address _issuer) public view returns (uint count) {\n        return assetSeriesByIssuer[_issuer].length;\n    }\n}",
  "sourcePath": "/Users/GustavoIbarra/Projects/Solidity/blockchain-asset-registry/contracts/AssetSeriesRegistry.sol",
  "compiler": {
    "name": "solc",
    "version": "0.4.24+commit.e67f0147.Emscripten.clang"
  },
  "schemaVersion": "2.0.1",
  "updatedAt": "2018-09-28T23:40:14.462Z"
}