{
  "contractName": "Serial",
  "abi": [
    {
      "constant": true,
      "inputs": [],
      "name": "serialNumber",
      "outputs": [
        {
          "name": "",
          "type": "uint256"
        }
      ],
      "payable": false,
      "stateMutability": "view",
      "type": "function"
    },
    {
      "constant": true,
      "inputs": [],
      "name": "assetSeries",
      "outputs": [
        {
          "name": "",
          "type": "address"
        }
      ],
      "payable": false,
      "stateMutability": "view",
      "type": "function"
    },
    {
      "inputs": [
        {
          "name": "_assetSeries",
          "type": "address"
        },
        {
          "name": "_serialNumber",
          "type": "uint256"
        }
      ],
      "payable": false,
      "stateMutability": "nonpayable",
      "type": "constructor"
    }
  ],
  "bytecode": "0x608060405234801561001057600080fd5b506040516040806101b68339810180604052810190808051906020019092919080519060200190929190505050816000806101000a81548173ffffffffffffffffffffffffffffffffffffffff021916908373ffffffffffffffffffffffffffffffffffffffff160217905550806001819055505050610121806100956000396000f3006080604052600436106049576000357c0100000000000000000000000000000000000000000000000000000000900463ffffffff1680632a0daeea14604e57806330835edd146076575b600080fd5b348015605957600080fd5b50606060ca565b6040518082815260200191505060405180910390f35b348015608157600080fd5b50608860d0565b604051808273ffffffffffffffffffffffffffffffffffffffff1673ffffffffffffffffffffffffffffffffffffffff16815260200191505060405180910390f35b60015481565b6000809054906101000a900473ffffffffffffffffffffffffffffffffffffffff16815600a165627a7a72305820e682b1075cbc0eb9d04140f53a63d160397dec74f944df0e025734b036cc94880029",
  "source": "pragma solidity ^0.4.24;\n\nimport './AssetSeries.sol';\n\n/**\n * @title Serial\n * @dev an Asset contract created from an AssetSeries contract is tracked via a Serial contract\n */\ncontract Serial {\n\n    AssetSeries public assetSeries;\n    uint256 public serialNumber;\n\n    constructor(\n        AssetSeries _assetSeries, \n        uint256 _serialNumber\n    ) public {\n        assetSeries = _assetSeries;\n        serialNumber = _serialNumber;\n    }\n}",
  "sourcePath": "/Users/GustavoIbarra/Projects/Solidity/blockchain-asset-registry/contracts/Serial.sol",
  "compiler": {
    "name": "solc",
    "version": "0.4.24+commit.e67f0147.Emscripten.clang"
  },
  "schemaVersion": "2.0.1",
  "updatedAt": "2018-09-28T23:40:14.454Z"
}